{
  "contractName": "ERC725",
  "abi": [
    {
      "anonymous": false,
      "inputs": [
        {
          "indexed": true,
          "internalType": "uint256",
          "name": "operation",
          "type": "uint256"
        },
        {
          "indexed": true,
          "internalType": "address",
          "name": "contractAddress",
          "type": "address"
        },
        {
          "indexed": true,
          "internalType": "uint256",
          "name": "value",
          "type": "uint256"
        }
      ],
      "name": "ContractCreated",
      "type": "event"
    },
    {
      "anonymous": false,
      "inputs": [
        {
          "indexed": true,
          "internalType": "bytes32",
          "name": "key",
          "type": "bytes32"
        },
        {
          "indexed": false,
          "internalType": "bytes",
          "name": "value",
          "type": "bytes"
        }
      ],
      "name": "DataChanged",
      "type": "event"
    },
    {
      "anonymous": false,
      "inputs": [
        {
          "indexed": true,
          "internalType": "uint256",
          "name": "operation",
          "type": "uint256"
        },
        {
          "indexed": true,
          "internalType": "address",
          "name": "to",
          "type": "address"
        },
        {
          "indexed": true,
          "internalType": "uint256",
          "name": "value",
          "type": "uint256"
        },
        {
          "indexed": false,
          "internalType": "bytes",
          "name": "data",
          "type": "bytes"
        }
      ],
      "name": "Executed",
      "type": "event"
    },
    {
      "anonymous": false,
      "inputs": [
        {
          "indexed": true,
          "internalType": "address",
          "name": "previousOwner",
          "type": "address"
        },
        {
          "indexed": true,
          "internalType": "address",
          "name": "newOwner",
          "type": "address"
        }
      ],
      "name": "OwnershipTransferred",
      "type": "event"
    },
    {
      "inputs": [],
      "name": "owner",
      "outputs": [
        {
          "internalType": "address",
          "name": "",
          "type": "address"
        }
      ],
      "stateMutability": "view",
      "type": "function",
      "constant": true
    },
    {
      "inputs": [],
      "name": "renounceOwnership",
      "outputs": [],
      "stateMutability": "nonpayable",
      "type": "function"
    },
    {
      "inputs": [
        {
          "internalType": "bytes4",
          "name": "interfaceId",
          "type": "bytes4"
        }
      ],
      "name": "supportsInterface",
      "outputs": [
        {
          "internalType": "bool",
          "name": "",
          "type": "bool"
        }
      ],
      "stateMutability": "view",
      "type": "function",
      "constant": true
    },
    {
      "inputs": [
        {
          "internalType": "address",
          "name": "newOwner",
          "type": "address"
        }
      ],
      "name": "transferOwnership",
      "outputs": [],
      "stateMutability": "nonpayable",
      "type": "function"
    },
    {
      "inputs": [
        {
          "internalType": "bytes32[]",
          "name": "keys",
          "type": "bytes32[]"
        }
      ],
      "name": "getData",
      "outputs": [
        {
          "internalType": "bytes[]",
          "name": "values",
          "type": "bytes[]"
        }
      ],
      "stateMutability": "view",
      "type": "function",
      "constant": true
    },
    {
      "inputs": [
        {
          "internalType": "bytes32[]",
          "name": "_keys",
          "type": "bytes32[]"
        },
        {
          "internalType": "bytes[]",
          "name": "_values",
          "type": "bytes[]"
        }
      ],
      "name": "setData",
      "outputs": [],
      "stateMutability": "nonpayable",
      "type": "function"
    },
    {
      "inputs": [
        {
          "internalType": "uint256",
          "name": "_operation",
          "type": "uint256"
        },
        {
          "internalType": "address",
          "name": "_to",
          "type": "address"
        },
        {
          "internalType": "uint256",
          "name": "_value",
          "type": "uint256"
        },
        {
          "internalType": "bytes",
          "name": "_data",
          "type": "bytes"
        }
      ],
      "name": "execute",
      "outputs": [
        {
          "internalType": "bytes",
          "name": "result",
          "type": "bytes"
        }
      ],
      "stateMutability": "payable",
      "type": "function",
      "payable": true
    }
  ],
  "bytecode": "0x608060405234801561001057600080fd5b506125b0806100206000396000f3fe6080604052600436106100705760003560e01c80634e3e6e9c1161004e5780634e3e6e9c1461010b578063715018a6146101485780638da5cb5b1461015f578063f2fde38b1461018a57610070565b806301ffc9a71461007557806314a6e293146100b257806344c028fe146100db575b600080fd5b34801561008157600080fd5b5061009c6004803603810190610097919061140f565b6101b3565b6040516100a99190611457565b60405180910390f35b3480156100be57600080fd5b506100d960048036038101906100d49190611797565b610282565b005b6100f560048036038101906100f091906118fe565b61039d565b6040516101029190611a0e565b60405180910390f35b34801561011757600080fd5b50610132600480360381019061012d9190611a30565b61090b565b60405161013f9190611b85565b60405180910390f35b34801561015457600080fd5b5061015d6109c4565b005b34801561016b57600080fd5b50610174610a45565b6040516101819190611bb6565b60405180910390f35b34801561019657600080fd5b506101b160048036038101906101ac9190611bd1565b610a6f565b005b60007f01ffc9a7000000000000000000000000000000000000000000000000000000007bffffffffffffffffffffffffffffffffffffffffffffffffffffffff1916827bffffffffffffffffffffffffffffffffffffffffffffffffffffffff1916148061027b5750600080837bffffffffffffffffffffffffffffffffffffffffffffffffffffffff19167bffffffffffffffffffffffffffffffffffffffffffffffffffffffff1916815260200190815260200160002060009054906101000a900460ff165b9050919050565b3373ffffffffffffffffffffffffffffffffffffffff166102a1610a45565b73ffffffffffffffffffffffffffffffffffffffff16146102f7576040517f08c379a00000000000000000000000000000000000000000000000000000000081526004016102ee90611c5b565b60405180910390fd5b805182511461033b576040517f08c379a000000000000000000000000000000000000000000000000000000000815260040161033290611ced565b60405180910390fd5b60005b82518110156103985761038583828151811061035d5761035c611d0d565b5b602002602001015183838151811061037857610377611d0d565b5b6020026020010151610b60565b808061039090611d6b565b91505061033e565b505050565b60603373ffffffffffffffffffffffffffffffffffffffff166103be610a45565b73ffffffffffffffffffffffffffffffffffffffff1614610414576040517f08c379a000000000000000000000000000000000000000000000000000000000815260040161040b90611c5b565b60405180910390fd5b60005a905060008714156104cb57610472868686868080601f016020809104026020016040519081016040528093929190818152602001838380828437600081840152601f19601f8201169050808301925050505050505084610bc4565b9150848673ffffffffffffffffffffffffffffffffffffffff16887f1f920dbda597d7bf95035464170fa58d0a4b57f13a1c315ace6793b9f63688b887876040516104be929190611de1565b60405180910390a4610901565b600387141561057c576105238685858080601f016020809104026020016040519081016040528093929190818152602001838380828437600081840152601f19601f8201169050808301925050505050505083610caf565b9150848673ffffffffffffffffffffffffffffffffffffffff16887f1f920dbda597d7bf95035464170fa58d0a4b57f13a1c315ace6793b9f63688b8878760405161056f929190611de1565b60405180910390a4610900565b60048714156106af57600061058f610a45565b90506105e08786868080601f016020809104026020016040519081016040528093929190818152602001838380828437600081840152601f19601f8201169050808301925050505050505084610d96565b9250858773ffffffffffffffffffffffffffffffffffffffff16897f1f920dbda597d7bf95035464170fa58d0a4b57f13a1c315ace6793b9f63688b8888860405161062c929190611de1565b60405180910390a48073ffffffffffffffffffffffffffffffffffffffff16610653610a45565b73ffffffffffffffffffffffffffffffffffffffff16146106a9576040517f08c379a00000000000000000000000000000000000000000000000000000000081526004016106a090611e77565b60405180910390fd5b506108ff565b60018714156107775760006107088686868080601f016020809104026020016040519081016040528093929190818152602001838380828437600081840152601f19601f82011690508083019250505050505050610e7d565b90508060405160200161071b9190611edf565b6040516020818303038152906040529250858173ffffffffffffffffffffffffffffffffffffffff16897f01c42bd7e97a66166063b02fce6924e6656b6c2c61966630165095c4fb0b7b2f60405160405180910390a4506108fe565b60028714156108c25760006107df85858080601f016020809104026020016040519081016040528093929190818152602001838380828437600081840152601f19601f820116905080830192505050505050506020878790506107da9190611efa565b610eff565b9050600061084286868080601f016020809104026020016040519081016040528093929190818152602001838380828437600081840152601f19601f82011690508083019250505050505050600060208989905061083d9190611efa565b610f66565b90506000610851888484611084565b9050806040516020016108649190611edf565b6040516020818303038152906040529450878173ffffffffffffffffffffffffffffffffffffffff168b7f01c42bd7e97a66166063b02fce6924e6656b6c2c61966630165095c4fb0b7b2f60405160405180910390a45050506108fd565b6040517f08c379a00000000000000000000000000000000000000000000000000000000081526004016108f490611f7a565b60405180910390fd5b5b5b5b5b5095945050505050565b6060815167ffffffffffffffff81111561092857610927611488565b5b60405190808252806020026020018201604052801561095b57816020015b60608152602001906001900390816109465790505b50905060005b82518110156109be5761098d8382815181106109805761097f611d0d565b5b6020026020010151611195565b8282815181106109a05761099f611d0d565b5b602002602001018190525080806109b690611d6b565b915050610961565b50919050565b3373ffffffffffffffffffffffffffffffffffffffff166109e3610a45565b73ffffffffffffffffffffffffffffffffffffffff1614610a39576040517f08c379a0000000000000000000000000000000000000000000000000000000008152600401610a3090611c5b565b60405180910390fd5b610a43600061123a565b565b6000600160009054906101000a900473ffffffffffffffffffffffffffffffffffffffff16905090565b3373ffffffffffffffffffffffffffffffffffffffff16610a8e610a45565b73ffffffffffffffffffffffffffffffffffffffff1614610ae4576040517f08c379a0000000000000000000000000000000000000000000000000000000008152600401610adb90611c5b565b60405180910390fd5b600073ffffffffffffffffffffffffffffffffffffffff168173ffffffffffffffffffffffffffffffffffffffff161415610b54576040517f08c379a0000000000000000000000000000000000000000000000000000000008152600401610b4b9061200c565b60405180910390fd5b610b5d8161123a565b50565b80600260008481526020019081526020016000209080519060200190610b87929190611300565b50817fece574603820d07bc9b91f2a932baadf4628aabcb8afba49776529c14a6104b282604051610bb89190611a0e565b60405180910390a25050565b60606000808673ffffffffffffffffffffffffffffffffffffffff16848787604051610bf09190612068565b600060405180830381858888f193505050503d8060008114610c2e576040519150601f19603f3d011682016040523d82523d6000602084013e610c33565b606091505b509150915081610ca257604481511015610c4c57600080fd5b60048101905080806020019051810190610c669190612120565b6040517f08c379a0000000000000000000000000000000000000000000000000000000008152600401610c9991906121ad565b60405180910390fd5b8092505050949350505050565b60606000808573ffffffffffffffffffffffffffffffffffffffff168486604051610cda9190612068565b6000604051808303818686fa925050503d8060008114610d16576040519150601f19603f3d011682016040523d82523d6000602084013e610d1b565b606091505b509150915081610d8a57604481511015610d3457600080fd5b60048101905080806020019051810190610d4e9190612120565b6040517f08c379a0000000000000000000000000000000000000000000000000000000008152600401610d8191906121ad565b60405180910390fd5b80925050509392505050565b60606000808573ffffffffffffffffffffffffffffffffffffffff168486604051610dc19190612068565b6000604051808303818686f4925050503d8060008114610dfd576040519150601f19603f3d011682016040523d82523d6000602084013e610e02565b606091505b509150915081610e7157604481511015610e1b57600080fd5b60048101905080806020019051810190610e359190612120565b6040517f08c379a0000000000000000000000000000000000000000000000000000000008152600401610e6891906121ad565b60405180910390fd5b80925050509392505050565b600081516020830184f09050600073ffffffffffffffffffffffffffffffffffffffff168173ffffffffffffffffffffffffffffffffffffffff161415610ef9576040517f08c379a0000000000000000000000000000000000000000000000000000000008152600401610ef09061221b565b60405180910390fd5b92915050565b6000602082610f0e919061223b565b83511015610f51576040517f08c379a0000000000000000000000000000000000000000000000000000000008152600401610f48906122dd565b60405180910390fd5b60008260208501015190508091505092915050565b606081601f83610f76919061223b565b1015610fb7576040517f08c379a0000000000000000000000000000000000000000000000000000000008152600401610fae90612349565b60405180910390fd5b8183610fc3919061223b565b84511015611006576040517f08c379a0000000000000000000000000000000000000000000000000000000008152600401610ffd906123b5565b60405180910390fd5b60608215600081146110275760405191506000825260208201604052611078565b6040519150601f8416801560200281840101858101878315602002848b0101015b818310156110655780518352602083019250602081019050611048565b50868552601f19601f8301166040525050505b50809150509392505050565b600080844710156110ca576040517f08c379a00000000000000000000000000000000000000000000000000000000081526004016110c190612421565b60405180910390fd5b60008351141561110f576040517f08c379a00000000000000000000000000000000000000000000000000000000081526004016111069061248d565b60405180910390fd5b8383516020850187f59050600073ffffffffffffffffffffffffffffffffffffffff168173ffffffffffffffffffffffffffffffffffffffff16141561118a576040517f08c379a0000000000000000000000000000000000000000000000000000000008152600401611181906124f9565b60405180910390fd5b809150509392505050565b60606002600083815260200190815260200160002080546111b590612548565b80601f01602080910402602001604051908101604052809291908181526020018280546111e190612548565b801561122e5780601f106112035761010080835404028352916020019161122e565b820191906000526020600020905b81548152906001019060200180831161121157829003601f168201915b50505050509050919050565b6000600160009054906101000a900473ffffffffffffffffffffffffffffffffffffffff16905081600160006101000a81548173ffffffffffffffffffffffffffffffffffffffff021916908373ffffffffffffffffffffffffffffffffffffffff1602179055508173ffffffffffffffffffffffffffffffffffffffff168173ffffffffffffffffffffffffffffffffffffffff167f8be0079c531659141344cd1fd0a4f28419497f9722a3daafe3b4186f6b6457e060405160405180910390a35050565b82805461130c90612548565b90600052602060002090601f01602090048101928261132e5760008555611375565b82601f1061134757805160ff1916838001178555611375565b82800160010185558215611375579182015b82811115611374578251825591602001919060010190611359565b5b5090506113829190611386565b5090565b5b8082111561139f576000816000905550600101611387565b5090565b6000604051905090565b600080fd5b600080fd5b60007fffffffff0000000000000000000000000000000000000000000000000000000082169050919050565b6113ec816113b7565b81146113f757600080fd5b50565b600081359050611409816113e3565b92915050565b600060208284031215611425576114246113ad565b5b6000611433848285016113fa565b91505092915050565b60008115159050919050565b6114518161143c565b82525050565b600060208201905061146c6000830184611448565b92915050565b600080fd5b6000601f19601f8301169050919050565b7f4e487b7100000000000000000000000000000000000000000000000000000000600052604160045260246000fd5b6114c082611477565b810181811067ffffffffffffffff821117156114df576114de611488565b5b80604052505050565b60006114f26113a3565b90506114fe82826114b7565b919050565b600067ffffffffffffffff82111561151e5761151d611488565b5b602082029050602081019050919050565b600080fd5b6000819050919050565b61154781611534565b811461155257600080fd5b50565b6000813590506115648161153e565b92915050565b600061157d61157884611503565b6114e8565b905080838252602082019050602084028301858111156115a05761159f61152f565b5b835b818110156115c957806115b58882611555565b8452602084019350506020810190506115a2565b5050509392505050565b600082601f8301126115e8576115e7611472565b5b81356115f884826020860161156a565b91505092915050565b600067ffffffffffffffff82111561161c5761161b611488565b5b602082029050602081019050919050565b600080fd5b600067ffffffffffffffff82111561164d5761164c611488565b5b61165682611477565b9050602081019050919050565b82818337600083830152505050565b600061168561168084611632565b6114e8565b9050828152602081018484840111156116a1576116a061162d565b5b6116ac848285611663565b509392505050565b600082601f8301126116c9576116c8611472565b5b81356116d9848260208601611672565b91505092915050565b60006116f56116f084611601565b6114e8565b905080838252602082019050602084028301858111156117185761171761152f565b5b835b8181101561175f57803567ffffffffffffffff81111561173d5761173c611472565b5b80860161174a89826116b4565b8552602085019450505060208101905061171a565b5050509392505050565b600082601f83011261177e5761177d611472565b5b813561178e8482602086016116e2565b91505092915050565b600080604083850312156117ae576117ad6113ad565b5b600083013567ffffffffffffffff8111156117cc576117cb6113b2565b5b6117d8858286016115d3565b925050602083013567ffffffffffffffff8111156117f9576117f86113b2565b5b61180585828601611769565b9150509250929050565b6000819050919050565b6118228161180f565b811461182d57600080fd5b50565b60008135905061183f81611819565b92915050565b600073ffffffffffffffffffffffffffffffffffffffff82169050919050565b600061187082611845565b9050919050565b61188081611865565b811461188b57600080fd5b50565b60008135905061189d81611877565b92915050565b600080fd5b60008083601f8401126118be576118bd611472565b5b8235905067ffffffffffffffff8111156118db576118da6118a3565b5b6020830191508360018202830111156118f7576118f661152f565b5b9250929050565b60008060008060006080868803121561191a576119196113ad565b5b600061192888828901611830565b95505060206119398882890161188e565b945050604061194a88828901611830565b935050606086013567ffffffffffffffff81111561196b5761196a6113b2565b5b611977888289016118a8565b92509250509295509295909350565b600081519050919050565b600082825260208201905092915050565b60005b838110156119c05780820151818401526020810190506119a5565b838111156119cf576000848401525b50505050565b60006119e082611986565b6119ea8185611991565b93506119fa8185602086016119a2565b611a0381611477565b840191505092915050565b60006020820190508181036000830152611a2881846119d5565b905092915050565b600060208284031215611a4657611a456113ad565b5b600082013567ffffffffffffffff811115611a6457611a636113b2565b5b611a70848285016115d3565b91505092915050565b600081519050919050565b600082825260208201905092915050565b6000819050602082019050919050565b600082825260208201905092915050565b6000611ac182611986565b611acb8185611aa5565b9350611adb8185602086016119a2565b611ae481611477565b840191505092915050565b6000611afb8383611ab6565b905092915050565b6000602082019050919050565b6000611b1b82611a79565b611b258185611a84565b935083602082028501611b3785611a95565b8060005b85811015611b735784840389528151611b548582611aef565b9450611b5f83611b03565b925060208a01995050600181019050611b3b565b50829750879550505050505092915050565b60006020820190508181036000830152611b9f8184611b10565b905092915050565b611bb081611865565b82525050565b6000602082019050611bcb6000830184611ba7565b92915050565b600060208284031215611be757611be66113ad565b5b6000611bf58482850161188e565b91505092915050565b600082825260208201905092915050565b7f4f776e61626c653a2063616c6c6572206973206e6f7420746865206f776e6572600082015250565b6000611c45602083611bfe565b9150611c5082611c0f565b602082019050919050565b60006020820190508181036000830152611c7481611c38565b9050919050565b7f4b657973206c656e677468206e6f7420657175616c20746f2076616c7565732060008201527f6c656e6774680000000000000000000000000000000000000000000000000000602082015250565b6000611cd7602683611bfe565b9150611ce282611c7b565b604082019050919050565b60006020820190508181036000830152611d0681611cca565b9050919050565b7f4e487b7100000000000000000000000000000000000000000000000000000000600052603260045260246000fd5b7f4e487b7100000000000000000000000000000000000000000000000000000000600052601160045260246000fd5b6000611d768261180f565b91507fffffffffffffffffffffffffffffffffffffffffffffffffffffffffffffffff821415611da957611da8611d3c565b5b600182019050919050565b6000611dc08385611991565b9350611dcd838584611663565b611dd683611477565b840190509392505050565b60006020820190508181036000830152611dfc818486611db4565b90509392505050565b7f44656c65676174652063616c6c206973206e6f7420616c6c6f77656420746f2060008201527f6d6f6469667920746865206f776e657221000000000000000000000000000000602082015250565b6000611e61603183611bfe565b9150611e6c82611e05565b604082019050919050565b60006020820190508181036000830152611e9081611e54565b9050919050565b60008160601b9050919050565b6000611eaf82611e97565b9050919050565b6000611ec182611ea4565b9050919050565b611ed9611ed482611865565b611eb6565b82525050565b6000611eeb8284611ec8565b60148201915081905092915050565b6000611f058261180f565b9150611f108361180f565b925082821015611f2357611f22611d3c565b5b828203905092915050565b7f57726f6e67206f7065726174696f6e2074797065000000000000000000000000600082015250565b6000611f64601483611bfe565b9150611f6f82611f2e565b602082019050919050565b60006020820190508181036000830152611f9381611f57565b9050919050565b7f4f776e61626c653a206e6577206f776e657220697320746865207a65726f206160008201527f6464726573730000000000000000000000000000000000000000000000000000602082015250565b6000611ff6602683611bfe565b915061200182611f9a565b604082019050919050565b6000602082019050818103600083015261202581611fe9565b9050919050565b600081905092915050565b600061204282611986565b61204c818561202c565b935061205c8185602086016119a2565b80840191505092915050565b60006120748284612037565b915081905092915050565b600067ffffffffffffffff82111561209a57612099611488565b5b6120a382611477565b9050602081019050919050565b60006120c36120be8461207f565b6114e8565b9050828152602081018484840111156120df576120de61162d565b5b6120ea8482856119a2565b509392505050565b600082601f83011261210757612106611472565b5b81516121178482602086016120b0565b91505092915050565b600060208284031215612136576121356113ad565b5b600082015167ffffffffffffffff811115612154576121536113b2565b5b612160848285016120f2565b91505092915050565b600081519050919050565b600061217f82612169565b6121898185611bfe565b93506121998185602086016119a2565b6121a281611477565b840191505092915050565b600060208201905081810360008301526121c78184612174565b905092915050565b7f436f756c64206e6f74206465706c6f7920636f6e747261637400000000000000600082015250565b6000612205601983611bfe565b9150612210826121cf565b602082019050919050565b60006020820190508181036000830152612234816121f8565b9050919050565b60006122468261180f565b91506122518361180f565b9250827fffffffffffffffffffffffffffffffffffffffffffffffffffffffffffffffff0382111561228657612285611d3c565b5b828201905092915050565b7f746f427974657333325f6f75744f66426f756e64730000000000000000000000600082015250565b60006122c7601583611bfe565b91506122d282612291565b602082019050919050565b600060208201905081810360008301526122f6816122ba565b9050919050565b7f736c6963655f6f766572666c6f77000000000000000000000000000000000000600082015250565b6000612333600e83611bfe565b915061233e826122fd565b602082019050919050565b6000602082019050818103600083015261236281612326565b9050919050565b7f736c6963655f6f75744f66426f756e6473000000000000000000000000000000600082015250565b600061239f601183611bfe565b91506123aa82612369565b602082019050919050565b600060208201905081810360008301526123ce81612392565b9050919050565b7f437265617465323a20696e73756666696369656e742062616c616e6365000000600082015250565b600061240b601d83611bfe565b9150612416826123d5565b602082019050919050565b6000602082019050818103600083015261243a816123fe565b9050919050565b7f437265617465323a2062797465636f6465206c656e677468206973207a65726f600082015250565b6000612477602083611bfe565b915061248282612441565b602082019050919050565b600060208201905081810360008301526124a68161246a565b9050919050565b7f437265617465323a204661696c6564206f6e206465706c6f7900000000000000600082015250565b60006124e3601983611bfe565b91506124ee826124ad565b602082019050919050565b60006020820190508181036000830152612512816124d6565b9050919050565b7f4e487b7100000000000000000000000000000000000000000000000000000000600052602260045260246000fd5b6000600282049050600182168061256057607f821691505b6020821081141561257457612573612519565b5b5091905056fea2646970667358221220a676a43865362b16b916e8ed6b1ee62c98f6c2696d006115eca36f95f892903764736f6c63430008090033",
  "immutableReferences": {},
  "source": "// SPDX-License-Identifier: MIT\r\npragma solidity ^0.8.9;\r\n\r\nimport \"./ERC173.sol\";\r\nimport \"./ERC165Storage.sol\";\r\nimport \"./interfaces/IERC725Y.sol\";\r\nimport \"./interfaces/IERC725X.sol\";\r\nimport \"./utils/constant.sol\";\r\nimport \"./utils/BytesAndAddress.sol\";\r\n\r\ncontract ERC725 is ERC165Storage, ERC173, IERC725Y, IERC725X  {\r\n    mapping(bytes32 => bytes) internal store;\r\n\r\n    function getData(bytes32[] memory keys)\r\n        public\r\n        view\r\n        virtual\r\n        override\r\n        returns (bytes[] memory values)\r\n    {\r\n        values = new bytes[](keys.length);\r\n\r\n        for (uint256 i = 0; i < keys.length; i++) {\r\n            values[i] = _getData(keys[i]);\r\n        }\r\n\r\n        return values;\r\n    }\r\n\r\n    function setData(bytes32[] memory _keys, bytes[] memory _values)\r\n        public\r\n        virtual\r\n        override\r\n        onlyOwner\r\n    {\r\n        require(_keys.length == _values.length, \"Keys length not equal to values length\");\r\n        for (uint256 i = 0; i < _keys.length; i++) {\r\n            _setData(_keys[i], _values[i]);\r\n        }\r\n    }\r\n\r\n    function execute(\r\n        uint256 _operation,\r\n        address _to,\r\n        uint256 _value,\r\n        bytes calldata _data\r\n    ) public payable virtual override onlyOwner returns (bytes memory result) {\r\n        uint256 txGas = gasleft();\r\n\r\n        // prettier-ignore\r\n\r\n        // CALL\r\n        if (_operation == OPERATION_CALL) {\r\n            result = executeCall(_to, _value, _data, txGas);\r\n\r\n            emit Executed(_operation, _to, _value, _data);\r\n\r\n        // STATICCALL\r\n        } else if (_operation == OPERATION_STATICCALL) {\r\n            result = executeStaticCall(_to, _data, txGas);\r\n\r\n            emit Executed(_operation, _to, _value, _data);\r\n\r\n        // DELEGATECALL\r\n        } else if (_operation == OPERATION_DELEGATECALL) {\r\n            address currentOwner = owner();\r\n            result = executeDelegateCall(_to, _data, txGas);\r\n            \r\n            emit Executed(_operation, _to, _value, _data);\r\n\r\n            require(owner() == currentOwner, \"Delegate call is not allowed to modify the owner!\");\r\n\r\n        // CREATE\r\n        } else if (_operation == OPERATION_CREATE) {\r\n            address contractAddress = performCreate(_value, _data);\r\n            result = abi.encodePacked(contractAddress);\r\n\r\n            emit ContractCreated(_operation, contractAddress, _value);\r\n\r\n        // CREATE2\r\n        } else if (_operation == OPERATION_CREATE2) {\r\n            bytes32 salt = BytesAndAddress.toBytes32(_data, _data.length - 32);\r\n            bytes memory data = BytesAndAddress.slice(_data, 0, _data.length - 32);\r\n\r\n            address contractAddress = BytesAndAddress.deploy(_value, salt, data);\r\n            result = abi.encodePacked(contractAddress);\r\n\r\n            emit ContractCreated(_operation, contractAddress, _value);\r\n    \r\n        } else {\r\n            revert(\"Wrong operation type\");\r\n        }\r\n    }\r\n\r\n    function _getData(bytes32 key) internal view virtual returns (bytes memory value) {\r\n        return store[key];\r\n    }\r\n\r\n    function _setData(bytes32 key, bytes memory value) internal virtual {\r\n        store[key] = value;\r\n        emit DataChanged(key, value);\r\n    }\r\n\r\n    function executeCall(\r\n        address to,\r\n        uint256 value,\r\n        bytes memory data,\r\n        uint256 txGas\r\n    ) internal returns (bytes memory) {\r\n        // solhint-disable avoid-low-level-calls\r\n        (bool success, bytes memory result) = to.call{gas: txGas, value: value}(data);\r\n\r\n        if (!success) {\r\n            // solhint-disable reason-string\r\n            if (result.length < 68) revert();\r\n\r\n            // solhint-disable no-inline-assembly\r\n            assembly {\r\n                result := add(result, 0x04)\r\n            }\r\n            revert(abi.decode(result, (string)));\r\n        }\r\n\r\n        return result;\r\n    }\r\n\r\n    function executeStaticCall(\r\n        address to,\r\n        bytes memory data,\r\n        uint256 txGas\r\n    ) internal view returns (bytes memory) {\r\n        (bool success, bytes memory result) = to.staticcall{gas: txGas}(data);\r\n\r\n        if (!success) {\r\n            // solhint-disable reason-string\r\n            if (result.length < 68) revert();\r\n\r\n            assembly {\r\n                result := add(result, 0x04)\r\n            }\r\n            revert(abi.decode(result, (string)));\r\n        }\r\n\r\n        return result;\r\n    }\r\n\r\n    function executeDelegateCall(\r\n        address to,\r\n        bytes memory data,\r\n        uint256 txGas\r\n    ) internal returns (bytes memory) {\r\n        // solhint-disable avoid-low-level-calls\r\n        (bool success, bytes memory result) = to.delegatecall{gas: txGas}(data);\r\n\r\n        if (!success) {\r\n            // solhint-disable reason-string\r\n            if (result.length < 68) revert();\r\n\r\n            assembly {\r\n                result := add(result, 0x04)\r\n            }\r\n            revert(abi.decode(result, (string)));\r\n        }\r\n\r\n        return result;\r\n    }\r\n\r\n    function performCreate(uint256 value, bytes memory deploymentData)\r\n        internal\r\n        returns (address newContract)\r\n    {\r\n        assembly {\r\n            newContract := create(value, add(deploymentData, 0x20), mload(deploymentData))\r\n        }\r\n\r\n        require(newContract != address(0), \"Could not deploy contract\");\r\n    }\r\n}\r\n",
  "sourcePath": "C:\\proj\\blockchain\\identity\\contracts\\ERC725.sol",
  "compiler": {
    "name": "solc",
    "version": "0.8.9+commit.e5eed63a.Emscripten.clang"
  },
  "schemaVersion": "3.4.3",
  "updatedAt": "2022-02-08T06:59:37.128Z",
  "networkType": "ethereum",
  "devdoc": {
    "kind": "dev",
    "methods": {},
    "version": 1
  },
  "userdoc": {
    "kind": "user",
    "methods": {},
    "version": 1
  }
}