{
  "contractName": "ERC725",
  "abi": [
    {
      "inputs": [
        {
          "internalType": "address",
          "name": "_newOwner",
          "type": "address"
        }
      ],
      "stateMutability": "nonpayable",
      "type": "constructor"
    },
    {
      "anonymous": false,
      "inputs": [
        {
          "indexed": true,
          "internalType": "uint256",
          "name": "operation",
          "type": "uint256"
        },
        {
          "indexed": true,
          "internalType": "address",
          "name": "contractAddress",
          "type": "address"
        },
        {
          "indexed": true,
          "internalType": "uint256",
          "name": "value",
          "type": "uint256"
        }
      ],
      "name": "ContractCreated",
      "type": "event"
    },
    {
      "anonymous": false,
      "inputs": [
        {
          "indexed": true,
          "internalType": "bytes32",
          "name": "key",
          "type": "bytes32"
        },
        {
          "indexed": false,
          "internalType": "bytes",
          "name": "value",
          "type": "bytes"
        }
      ],
      "name": "DataChanged",
      "type": "event"
    },
    {
      "anonymous": false,
      "inputs": [
        {
          "indexed": true,
          "internalType": "uint256",
          "name": "operation",
          "type": "uint256"
        },
        {
          "indexed": true,
          "internalType": "address",
          "name": "to",
          "type": "address"
        },
        {
          "indexed": true,
          "internalType": "uint256",
          "name": "value",
          "type": "uint256"
        },
        {
          "indexed": false,
          "internalType": "bytes",
          "name": "data",
          "type": "bytes"
        }
      ],
      "name": "Executed",
      "type": "event"
    },
    {
      "anonymous": false,
      "inputs": [
        {
          "indexed": true,
          "internalType": "address",
          "name": "previousOwner",
          "type": "address"
        },
        {
          "indexed": true,
          "internalType": "address",
          "name": "newOwner",
          "type": "address"
        }
      ],
      "name": "OwnershipTransferred",
      "type": "event"
    },
    {
      "inputs": [],
      "name": "owner",
      "outputs": [
        {
          "internalType": "address",
          "name": "",
          "type": "address"
        }
      ],
      "stateMutability": "view",
      "type": "function"
    },
    {
      "inputs": [],
      "name": "renounceOwnership",
      "outputs": [],
      "stateMutability": "nonpayable",
      "type": "function"
    },
    {
      "inputs": [
        {
          "internalType": "bytes4",
          "name": "interfaceId",
          "type": "bytes4"
        }
      ],
      "name": "supportsInterface",
      "outputs": [
        {
          "internalType": "bool",
          "name": "",
          "type": "bool"
        }
      ],
      "stateMutability": "view",
      "type": "function"
    },
    {
      "inputs": [
        {
          "internalType": "address",
          "name": "newOwner",
          "type": "address"
        }
      ],
      "name": "transferOwnership",
      "outputs": [],
      "stateMutability": "nonpayable",
      "type": "function"
    },
    {
      "inputs": [
        {
          "internalType": "bytes32[]",
          "name": "keys",
          "type": "bytes32[]"
        }
      ],
      "name": "getData",
      "outputs": [
        {
          "internalType": "bytes[]",
          "name": "values",
          "type": "bytes[]"
        }
      ],
      "stateMutability": "view",
      "type": "function"
    },
    {
      "inputs": [
        {
          "internalType": "bytes32[]",
          "name": "_keys",
          "type": "bytes32[]"
        },
        {
          "internalType": "bytes[]",
          "name": "_values",
          "type": "bytes[]"
        }
      ],
      "name": "setData",
      "outputs": [],
      "stateMutability": "nonpayable",
      "type": "function"
    },
    {
      "inputs": [
        {
          "internalType": "uint256",
          "name": "_operation",
          "type": "uint256"
        },
        {
          "internalType": "address",
          "name": "_to",
          "type": "address"
        },
        {
          "internalType": "uint256",
          "name": "_value",
          "type": "uint256"
        },
        {
          "internalType": "bytes",
          "name": "_data",
          "type": "bytes"
        }
      ],
      "name": "execute",
      "outputs": [
        {
          "internalType": "bytes",
          "name": "result",
          "type": "bytes"
        }
      ],
      "stateMutability": "payable",
      "type": "function"
    }
  ],
  "bytecode": "0x60806040523480156200001157600080fd5b5060405162002b2238038062002b2283398181016040528101906200003791906200030d565b6200004d816200008460201b62000b601760201c565b620000656344c028fe60e01b6200010560201b60201c565b6200007d635a988c0f60e01b6200010560201b60201c565b506200045a565b600160149054906101000a900460ff1615620000d7576040517f08c379a0000000000000000000000000000000000000000000000000000000008152600401620000ce90620003c6565b60405180910390fd5b60018060146101000a81548160ff0219169083151502179055506200010281620001dd60201b60201c565b50565b63ffffffff60e01b817bffffffffffffffffffffffffffffffffffffffffffffffffffffffff1916141562000171576040517f08c379a0000000000000000000000000000000000000000000000000000000008152600401620001689062000438565b60405180910390fd5b6001600080837bffffffffffffffffffffffffffffffffffffffffffffffffffffffff19167bffffffffffffffffffffffffffffffffffffffffffffffffffffffff1916815260200190815260200160002060006101000a81548160ff02191690831515021790555050565b6000600160009054906101000a900473ffffffffffffffffffffffffffffffffffffffff16905081600160006101000a81548173ffffffffffffffffffffffffffffffffffffffff021916908373ffffffffffffffffffffffffffffffffffffffff1602179055508173ffffffffffffffffffffffffffffffffffffffff168173ffffffffffffffffffffffffffffffffffffffff167f8be0079c531659141344cd1fd0a4f28419497f9722a3daafe3b4186f6b6457e060405160405180910390a35050565b600080fd5b600073ffffffffffffffffffffffffffffffffffffffff82169050919050565b6000620002d582620002a8565b9050919050565b620002e781620002c8565b8114620002f357600080fd5b50565b6000815190506200030781620002dc565b92915050565b600060208284031215620003265762000325620002a3565b5b60006200033684828501620002f6565b91505092915050565b600082825260208201905092915050565b7f4f776e61626c653a206f776e65722063616e206f6e6c7920626520696e69746960008201527f61746564206f6e63650000000000000000000000000000000000000000000000602082015250565b6000620003ae6029836200033f565b9150620003bb8262000350565b604082019050919050565b60006020820190508181036000830152620003e1816200039f565b9050919050565b7f4552433136353a20696e76616c696420696e7465726661636520696400000000600082015250565b600062000420601c836200033f565b91506200042d82620003e8565b602082019050919050565b60006020820190508181036000830152620004538162000411565b9050919050565b6126b8806200046a6000396000f3fe6080604052600436106100705760003560e01c80634e3e6e9c1161004e5780634e3e6e9c1461010b578063715018a6146101485780638da5cb5b1461015f578063f2fde38b1461018a57610070565b806301ffc9a71461007557806314a6e293146100b257806344c028fe146100db575b600080fd5b34801561008157600080fd5b5061009c60048036038101906100979190611485565b6101b3565b6040516100a991906114cd565b60405180910390f35b3480156100be57600080fd5b506100d960048036038101906100d4919061180d565b610282565b005b6100f560048036038101906100f09190611974565b61039d565b6040516101029190611a84565b60405180910390f35b34801561011757600080fd5b50610132600480360381019061012d9190611aa6565b61090b565b60405161013f9190611bfb565b60405180910390f35b34801561015457600080fd5b5061015d6109c4565b005b34801561016b57600080fd5b50610174610a45565b6040516101819190611c2c565b60405180910390f35b34801561019657600080fd5b506101b160048036038101906101ac9190611c47565b610a6f565b005b60007f01ffc9a7000000000000000000000000000000000000000000000000000000007bffffffffffffffffffffffffffffffffffffffffffffffffffffffff1916827bffffffffffffffffffffffffffffffffffffffffffffffffffffffff1916148061027b5750600080837bffffffffffffffffffffffffffffffffffffffffffffffffffffffff19167bffffffffffffffffffffffffffffffffffffffffffffffffffffffff1916815260200190815260200160002060009054906101000a900460ff165b9050919050565b3373ffffffffffffffffffffffffffffffffffffffff166102a1610a45565b73ffffffffffffffffffffffffffffffffffffffff16146102f7576040517f08c379a00000000000000000000000000000000000000000000000000000000081526004016102ee90611cd1565b60405180910390fd5b805182511461033b576040517f08c379a000000000000000000000000000000000000000000000000000000000815260040161033290611d63565b60405180910390fd5b60005b82518110156103985761038583828151811061035d5761035c611d83565b5b602002602001015183838151811061037857610377611d83565b5b6020026020010151610bd6565b808061039090611de1565b91505061033e565b505050565b60603373ffffffffffffffffffffffffffffffffffffffff166103be610a45565b73ffffffffffffffffffffffffffffffffffffffff1614610414576040517f08c379a000000000000000000000000000000000000000000000000000000000815260040161040b90611cd1565b60405180910390fd5b60005a905060008714156104cb57610472868686868080601f016020809104026020016040519081016040528093929190818152602001838380828437600081840152601f19601f8201169050808301925050505050505084610c3a565b9150848673ffffffffffffffffffffffffffffffffffffffff16887f1f920dbda597d7bf95035464170fa58d0a4b57f13a1c315ace6793b9f63688b887876040516104be929190611e57565b60405180910390a4610901565b600387141561057c576105238685858080601f016020809104026020016040519081016040528093929190818152602001838380828437600081840152601f19601f8201169050808301925050505050505083610d25565b9150848673ffffffffffffffffffffffffffffffffffffffff16887f1f920dbda597d7bf95035464170fa58d0a4b57f13a1c315ace6793b9f63688b8878760405161056f929190611e57565b60405180910390a4610900565b60048714156106af57600061058f610a45565b90506105e08786868080601f016020809104026020016040519081016040528093929190818152602001838380828437600081840152601f19601f8201169050808301925050505050505084610e0c565b9250858773ffffffffffffffffffffffffffffffffffffffff16897f1f920dbda597d7bf95035464170fa58d0a4b57f13a1c315ace6793b9f63688b8888860405161062c929190611e57565b60405180910390a48073ffffffffffffffffffffffffffffffffffffffff16610653610a45565b73ffffffffffffffffffffffffffffffffffffffff16146106a9576040517f08c379a00000000000000000000000000000000000000000000000000000000081526004016106a090611eed565b60405180910390fd5b506108ff565b60018714156107775760006107088686868080601f016020809104026020016040519081016040528093929190818152602001838380828437600081840152601f19601f82011690508083019250505050505050610ef3565b90508060405160200161071b9190611f55565b6040516020818303038152906040529250858173ffffffffffffffffffffffffffffffffffffffff16897f01c42bd7e97a66166063b02fce6924e6656b6c2c61966630165095c4fb0b7b2f60405160405180910390a4506108fe565b60028714156108c25760006107df85858080601f016020809104026020016040519081016040528093929190818152602001838380828437600081840152601f19601f820116905080830192505050505050506020878790506107da9190611f70565b610f75565b9050600061084286868080601f016020809104026020016040519081016040528093929190818152602001838380828437600081840152601f19601f82011690508083019250505050505050600060208989905061083d9190611f70565b610fdc565b905060006108518884846110fa565b9050806040516020016108649190611f55565b6040516020818303038152906040529450878173ffffffffffffffffffffffffffffffffffffffff168b7f01c42bd7e97a66166063b02fce6924e6656b6c2c61966630165095c4fb0b7b2f60405160405180910390a45050506108fd565b6040517f08c379a00000000000000000000000000000000000000000000000000000000081526004016108f490611ff0565b60405180910390fd5b5b5b5b5b5095945050505050565b6060815167ffffffffffffffff811115610928576109276114fe565b5b60405190808252806020026020018201604052801561095b57816020015b60608152602001906001900390816109465790505b50905060005b82518110156109be5761098d8382815181106109805761097f611d83565b5b602002602001015161120b565b8282815181106109a05761099f611d83565b5b602002602001018190525080806109b690611de1565b915050610961565b50919050565b3373ffffffffffffffffffffffffffffffffffffffff166109e3610a45565b73ffffffffffffffffffffffffffffffffffffffff1614610a39576040517f08c379a0000000000000000000000000000000000000000000000000000000008152600401610a3090611cd1565b60405180910390fd5b610a4360006112b0565b565b6000600160009054906101000a900473ffffffffffffffffffffffffffffffffffffffff16905090565b3373ffffffffffffffffffffffffffffffffffffffff16610a8e610a45565b73ffffffffffffffffffffffffffffffffffffffff1614610ae4576040517f08c379a0000000000000000000000000000000000000000000000000000000008152600401610adb90611cd1565b60405180910390fd5b600073ffffffffffffffffffffffffffffffffffffffff168173ffffffffffffffffffffffffffffffffffffffff161415610b54576040517f08c379a0000000000000000000000000000000000000000000000000000000008152600401610b4b90612082565b60405180910390fd5b610b5d816112b0565b50565b600160149054906101000a900460ff1615610bb0576040517f08c379a0000000000000000000000000000000000000000000000000000000008152600401610ba790612114565b60405180910390fd5b60018060146101000a81548160ff021916908315150217905550610bd3816112b0565b50565b80600260008481526020019081526020016000209080519060200190610bfd929190611376565b50817fece574603820d07bc9b91f2a932baadf4628aabcb8afba49776529c14a6104b282604051610c2e9190611a84565b60405180910390a25050565b60606000808673ffffffffffffffffffffffffffffffffffffffff16848787604051610c669190612170565b600060405180830381858888f193505050503d8060008114610ca4576040519150601f19603f3d011682016040523d82523d6000602084013e610ca9565b606091505b509150915081610d1857604481511015610cc257600080fd5b60048101905080806020019051810190610cdc9190612228565b6040517f08c379a0000000000000000000000000000000000000000000000000000000008152600401610d0f91906122b5565b60405180910390fd5b8092505050949350505050565b60606000808573ffffffffffffffffffffffffffffffffffffffff168486604051610d509190612170565b6000604051808303818686fa925050503d8060008114610d8c576040519150601f19603f3d011682016040523d82523d6000602084013e610d91565b606091505b509150915081610e0057604481511015610daa57600080fd5b60048101905080806020019051810190610dc49190612228565b6040517f08c379a0000000000000000000000000000000000000000000000000000000008152600401610df791906122b5565b60405180910390fd5b80925050509392505050565b60606000808573ffffffffffffffffffffffffffffffffffffffff168486604051610e379190612170565b6000604051808303818686f4925050503d8060008114610e73576040519150601f19603f3d011682016040523d82523d6000602084013e610e78565b606091505b509150915081610ee757604481511015610e9157600080fd5b60048101905080806020019051810190610eab9190612228565b6040517f08c379a0000000000000000000000000000000000000000000000000000000008152600401610ede91906122b5565b60405180910390fd5b80925050509392505050565b600081516020830184f09050600073ffffffffffffffffffffffffffffffffffffffff168173ffffffffffffffffffffffffffffffffffffffff161415610f6f576040517f08c379a0000000000000000000000000000000000000000000000000000000008152600401610f6690612323565b60405180910390fd5b92915050565b6000602082610f849190612343565b83511015610fc7576040517f08c379a0000000000000000000000000000000000000000000000000000000008152600401610fbe906123e5565b60405180910390fd5b60008260208501015190508091505092915050565b606081601f83610fec9190612343565b101561102d576040517f08c379a000000000000000000000000000000000000000000000000000000000815260040161102490612451565b60405180910390fd5b81836110399190612343565b8451101561107c576040517f08c379a0000000000000000000000000000000000000000000000000000000008152600401611073906124bd565b60405180910390fd5b606082156000811461109d57604051915060008252602082016040526110ee565b6040519150601f8416801560200281840101858101878315602002848b0101015b818310156110db57805183526020830192506020810190506110be565b50868552601f19601f8301166040525050505b50809150509392505050565b60008084471015611140576040517f08c379a000000000000000000000000000000000000000000000000000000000815260040161113790612529565b60405180910390fd5b600083511415611185576040517f08c379a000000000000000000000000000000000000000000000000000000000815260040161117c90612595565b60405180910390fd5b8383516020850187f59050600073ffffffffffffffffffffffffffffffffffffffff168173ffffffffffffffffffffffffffffffffffffffff161415611200576040517f08c379a00000000000000000000000000000000000000000000000000000000081526004016111f790612601565b60405180910390fd5b809150509392505050565b606060026000838152602001908152602001600020805461122b90612650565b80601f016020809104026020016040519081016040528092919081815260200182805461125790612650565b80156112a45780601f10611279576101008083540402835291602001916112a4565b820191906000526020600020905b81548152906001019060200180831161128757829003601f168201915b50505050509050919050565b6000600160009054906101000a900473ffffffffffffffffffffffffffffffffffffffff16905081600160006101000a81548173ffffffffffffffffffffffffffffffffffffffff021916908373ffffffffffffffffffffffffffffffffffffffff1602179055508173ffffffffffffffffffffffffffffffffffffffff168173ffffffffffffffffffffffffffffffffffffffff167f8be0079c531659141344cd1fd0a4f28419497f9722a3daafe3b4186f6b6457e060405160405180910390a35050565b82805461138290612650565b90600052602060002090601f0160209004810192826113a457600085556113eb565b82601f106113bd57805160ff19168380011785556113eb565b828001600101855582156113eb579182015b828111156113ea5782518255916020019190600101906113cf565b5b5090506113f891906113fc565b5090565b5b808211156114155760008160009055506001016113fd565b5090565b6000604051905090565b600080fd5b600080fd5b60007fffffffff0000000000000000000000000000000000000000000000000000000082169050919050565b6114628161142d565b811461146d57600080fd5b50565b60008135905061147f81611459565b92915050565b60006020828403121561149b5761149a611423565b5b60006114a984828501611470565b91505092915050565b60008115159050919050565b6114c7816114b2565b82525050565b60006020820190506114e260008301846114be565b92915050565b600080fd5b6000601f19601f8301169050919050565b7f4e487b7100000000000000000000000000000000000000000000000000000000600052604160045260246000fd5b611536826114ed565b810181811067ffffffffffffffff82111715611555576115546114fe565b5b80604052505050565b6000611568611419565b9050611574828261152d565b919050565b600067ffffffffffffffff821115611594576115936114fe565b5b602082029050602081019050919050565b600080fd5b6000819050919050565b6115bd816115aa565b81146115c857600080fd5b50565b6000813590506115da816115b4565b92915050565b60006115f36115ee84611579565b61155e565b90508083825260208201905060208402830185811115611616576116156115a5565b5b835b8181101561163f578061162b88826115cb565b845260208401935050602081019050611618565b5050509392505050565b600082601f83011261165e5761165d6114e8565b5b813561166e8482602086016115e0565b91505092915050565b600067ffffffffffffffff821115611692576116916114fe565b5b602082029050602081019050919050565b600080fd5b600067ffffffffffffffff8211156116c3576116c26114fe565b5b6116cc826114ed565b9050602081019050919050565b82818337600083830152505050565b60006116fb6116f6846116a8565b61155e565b905082815260208101848484011115611717576117166116a3565b5b6117228482856116d9565b509392505050565b600082601f83011261173f5761173e6114e8565b5b813561174f8482602086016116e8565b91505092915050565b600061176b61176684611677565b61155e565b9050808382526020820190506020840283018581111561178e5761178d6115a5565b5b835b818110156117d557803567ffffffffffffffff8111156117b3576117b26114e8565b5b8086016117c0898261172a565b85526020850194505050602081019050611790565b5050509392505050565b600082601f8301126117f4576117f36114e8565b5b8135611804848260208601611758565b91505092915050565b6000806040838503121561182457611823611423565b5b600083013567ffffffffffffffff81111561184257611841611428565b5b61184e85828601611649565b925050602083013567ffffffffffffffff81111561186f5761186e611428565b5b61187b858286016117df565b9150509250929050565b6000819050919050565b61189881611885565b81146118a357600080fd5b50565b6000813590506118b58161188f565b92915050565b600073ffffffffffffffffffffffffffffffffffffffff82169050919050565b60006118e6826118bb565b9050919050565b6118f6816118db565b811461190157600080fd5b50565b600081359050611913816118ed565b92915050565b600080fd5b60008083601f840112611934576119336114e8565b5b8235905067ffffffffffffffff81111561195157611950611919565b5b60208301915083600182028301111561196d5761196c6115a5565b5b9250929050565b6000806000806000608086880312156119905761198f611423565b5b600061199e888289016118a6565b95505060206119af88828901611904565b94505060406119c0888289016118a6565b935050606086013567ffffffffffffffff8111156119e1576119e0611428565b5b6119ed8882890161191e565b92509250509295509295909350565b600081519050919050565b600082825260208201905092915050565b60005b83811015611a36578082015181840152602081019050611a1b565b83811115611a45576000848401525b50505050565b6000611a56826119fc565b611a608185611a07565b9350611a70818560208601611a18565b611a79816114ed565b840191505092915050565b60006020820190508181036000830152611a9e8184611a4b565b905092915050565b600060208284031215611abc57611abb611423565b5b600082013567ffffffffffffffff811115611ada57611ad9611428565b5b611ae684828501611649565b91505092915050565b600081519050919050565b600082825260208201905092915050565b6000819050602082019050919050565b600082825260208201905092915050565b6000611b37826119fc565b611b418185611b1b565b9350611b51818560208601611a18565b611b5a816114ed565b840191505092915050565b6000611b718383611b2c565b905092915050565b6000602082019050919050565b6000611b9182611aef565b611b9b8185611afa565b935083602082028501611bad85611b0b565b8060005b85811015611be95784840389528151611bca8582611b65565b9450611bd583611b79565b925060208a01995050600181019050611bb1565b50829750879550505050505092915050565b60006020820190508181036000830152611c158184611b86565b905092915050565b611c26816118db565b82525050565b6000602082019050611c416000830184611c1d565b92915050565b600060208284031215611c5d57611c5c611423565b5b6000611c6b84828501611904565b91505092915050565b600082825260208201905092915050565b7f4f776e61626c653a2063616c6c6572206973206e6f7420746865206f776e6572600082015250565b6000611cbb602083611c74565b9150611cc682611c85565b602082019050919050565b60006020820190508181036000830152611cea81611cae565b9050919050565b7f4b657973206c656e677468206e6f7420657175616c20746f2076616c7565732060008201527f6c656e6774680000000000000000000000000000000000000000000000000000602082015250565b6000611d4d602683611c74565b9150611d5882611cf1565b604082019050919050565b60006020820190508181036000830152611d7c81611d40565b9050919050565b7f4e487b7100000000000000000000000000000000000000000000000000000000600052603260045260246000fd5b7f4e487b7100000000000000000000000000000000000000000000000000000000600052601160045260246000fd5b6000611dec82611885565b91507fffffffffffffffffffffffffffffffffffffffffffffffffffffffffffffffff821415611e1f57611e1e611db2565b5b600182019050919050565b6000611e368385611a07565b9350611e438385846116d9565b611e4c836114ed565b840190509392505050565b60006020820190508181036000830152611e72818486611e2a565b90509392505050565b7f44656c65676174652063616c6c206973206e6f7420616c6c6f77656420746f2060008201527f6d6f6469667920746865206f776e657221000000000000000000000000000000602082015250565b6000611ed7603183611c74565b9150611ee282611e7b565b604082019050919050565b60006020820190508181036000830152611f0681611eca565b9050919050565b60008160601b9050919050565b6000611f2582611f0d565b9050919050565b6000611f3782611f1a565b9050919050565b611f4f611f4a826118db565b611f2c565b82525050565b6000611f618284611f3e565b60148201915081905092915050565b6000611f7b82611885565b9150611f8683611885565b925082821015611f9957611f98611db2565b5b828203905092915050565b7f57726f6e67206f7065726174696f6e2074797065000000000000000000000000600082015250565b6000611fda601483611c74565b9150611fe582611fa4565b602082019050919050565b6000602082019050818103600083015261200981611fcd565b9050919050565b7f4f776e61626c653a206e6577206f776e657220697320746865207a65726f206160008201527f6464726573730000000000000000000000000000000000000000000000000000602082015250565b600061206c602683611c74565b915061207782612010565b604082019050919050565b6000602082019050818103600083015261209b8161205f565b9050919050565b7f4f776e61626c653a206f776e65722063616e206f6e6c7920626520696e69746960008201527f61746564206f6e63650000000000000000000000000000000000000000000000602082015250565b60006120fe602983611c74565b9150612109826120a2565b604082019050919050565b6000602082019050818103600083015261212d816120f1565b9050919050565b600081905092915050565b600061214a826119fc565b6121548185612134565b9350612164818560208601611a18565b80840191505092915050565b600061217c828461213f565b915081905092915050565b600067ffffffffffffffff8211156121a2576121a16114fe565b5b6121ab826114ed565b9050602081019050919050565b60006121cb6121c684612187565b61155e565b9050828152602081018484840111156121e7576121e66116a3565b5b6121f2848285611a18565b509392505050565b600082601f83011261220f5761220e6114e8565b5b815161221f8482602086016121b8565b91505092915050565b60006020828403121561223e5761223d611423565b5b600082015167ffffffffffffffff81111561225c5761225b611428565b5b612268848285016121fa565b91505092915050565b600081519050919050565b600061228782612271565b6122918185611c74565b93506122a1818560208601611a18565b6122aa816114ed565b840191505092915050565b600060208201905081810360008301526122cf818461227c565b905092915050565b7f436f756c64206e6f74206465706c6f7920636f6e747261637400000000000000600082015250565b600061230d601983611c74565b9150612318826122d7565b602082019050919050565b6000602082019050818103600083015261233c81612300565b9050919050565b600061234e82611885565b915061235983611885565b9250827fffffffffffffffffffffffffffffffffffffffffffffffffffffffffffffffff0382111561238e5761238d611db2565b5b828201905092915050565b7f746f427974657333325f6f75744f66426f756e64730000000000000000000000600082015250565b60006123cf601583611c74565b91506123da82612399565b602082019050919050565b600060208201905081810360008301526123fe816123c2565b9050919050565b7f736c6963655f6f766572666c6f77000000000000000000000000000000000000600082015250565b600061243b600e83611c74565b915061244682612405565b602082019050919050565b6000602082019050818103600083015261246a8161242e565b9050919050565b7f736c6963655f6f75744f66426f756e6473000000000000000000000000000000600082015250565b60006124a7601183611c74565b91506124b282612471565b602082019050919050565b600060208201905081810360008301526124d68161249a565b9050919050565b7f437265617465323a20696e73756666696369656e742062616c616e6365000000600082015250565b6000612513601d83611c74565b915061251e826124dd565b602082019050919050565b6000602082019050818103600083015261254281612506565b9050919050565b7f437265617465323a2062797465636f6465206c656e677468206973207a65726f600082015250565b600061257f602083611c74565b915061258a82612549565b602082019050919050565b600060208201905081810360008301526125ae81612572565b9050919050565b7f437265617465323a204661696c6564206f6e206465706c6f7900000000000000600082015250565b60006125eb601983611c74565b91506125f6826125b5565b602082019050919050565b6000602082019050818103600083015261261a816125de565b9050919050565b7f4e487b7100000000000000000000000000000000000000000000000000000000600052602260045260246000fd5b6000600282049050600182168061266857607f821691505b6020821081141561267c5761267b612621565b5b5091905056fea2646970667358221220810039521184d8a5ae3592f47b53573e4bc0d439468bea1eca6daa957da0b34a64736f6c63430008090033",
  "immutableReferences": {},
  "source": "// SPDX-License-Identifier: MIT\r\npragma solidity ^0.8.9;\r\n\r\nimport \"./ERC173.sol\";\r\nimport \"./ERC165Storage.sol\";\r\nimport \"./interfaces/IERC725Y.sol\";\r\nimport \"./interfaces/IERC725X.sol\";\r\nimport \"./utils/constant.sol\";\r\nimport \"./utils/BytesAndAddress.sol\";\r\n\r\ncontract ERC725 is ERC165Storage, ERC173, IERC725Y, IERC725X  {\r\n    mapping(bytes32 => bytes) internal store;\r\n\r\n    constructor(address _newOwner) {\r\n        ERC173.initOwner(_newOwner);\r\n        _registerInterface(_INTERFACEID_ERC725X);\r\n        _registerInterface(_INTERFACEID_ERC725Y);\r\n    }\r\n\r\n    function getData(bytes32[] memory keys)\r\n        public\r\n        view\r\n        virtual\r\n        override\r\n        returns (bytes[] memory values)\r\n    {\r\n        values = new bytes[](keys.length);\r\n\r\n        for (uint256 i = 0; i < keys.length; i++) {\r\n            values[i] = _getData(keys[i]);\r\n        }\r\n\r\n        return values;\r\n    }\r\n\r\n    function setData(bytes32[] memory _keys, bytes[] memory _values)\r\n        public\r\n        virtual\r\n        override\r\n        onlyOwner\r\n    {\r\n        require(_keys.length == _values.length, \"Keys length not equal to values length\");\r\n        for (uint256 i = 0; i < _keys.length; i++) {\r\n            _setData(_keys[i], _values[i]);\r\n        }\r\n    }\r\n\r\n    function execute(\r\n        uint256 _operation,\r\n        address _to,\r\n        uint256 _value,\r\n        bytes calldata _data\r\n    ) public payable virtual override onlyOwner returns (bytes memory result) {\r\n        uint256 txGas = gasleft();\r\n\r\n        // prettier-ignore\r\n\r\n        // CALL\r\n        if (_operation == OPERATION_CALL) {\r\n            result = executeCall(_to, _value, _data, txGas);\r\n\r\n            emit Executed(_operation, _to, _value, _data);\r\n\r\n        // STATICCALL\r\n        } else if (_operation == OPERATION_STATICCALL) {\r\n            result = executeStaticCall(_to, _data, txGas);\r\n\r\n            emit Executed(_operation, _to, _value, _data);\r\n\r\n        // DELEGATECALL\r\n        } else if (_operation == OPERATION_DELEGATECALL) {\r\n            address currentOwner = owner();\r\n            result = executeDelegateCall(_to, _data, txGas);\r\n            \r\n            emit Executed(_operation, _to, _value, _data);\r\n\r\n            require(owner() == currentOwner, \"Delegate call is not allowed to modify the owner!\");\r\n\r\n        // CREATE\r\n        } else if (_operation == OPERATION_CREATE) {\r\n            address contractAddress = performCreate(_value, _data);\r\n            result = abi.encodePacked(contractAddress);\r\n\r\n            emit ContractCreated(_operation, contractAddress, _value);\r\n\r\n        // CREATE2\r\n        } else if (_operation == OPERATION_CREATE2) {\r\n            bytes32 salt = BytesAndAddress.toBytes32(_data, _data.length - 32);\r\n            bytes memory data = BytesAndAddress.slice(_data, 0, _data.length - 32);\r\n\r\n            address contractAddress = BytesAndAddress.deploy(_value, salt, data);\r\n            result = abi.encodePacked(contractAddress);\r\n\r\n            emit ContractCreated(_operation, contractAddress, _value);\r\n    \r\n        } else {\r\n            revert(\"Wrong operation type\");\r\n        }\r\n    }\r\n\r\n    function _getData(bytes32 key) internal view virtual returns (bytes memory value) {\r\n        return store[key];\r\n    }\r\n\r\n    function _setData(bytes32 key, bytes memory value) internal virtual {\r\n        store[key] = value;\r\n        emit DataChanged(key, value);\r\n    }\r\n\r\n    function executeCall(\r\n        address to,\r\n        uint256 value,\r\n        bytes memory data,\r\n        uint256 txGas\r\n    ) internal returns (bytes memory) {\r\n        // solhint-disable avoid-low-level-calls\r\n        (bool success, bytes memory result) = to.call{gas: txGas, value: value}(data);\r\n\r\n        if (!success) {\r\n            // solhint-disable reason-string\r\n            if (result.length < 68) revert();\r\n\r\n            // solhint-disable no-inline-assembly\r\n            assembly {\r\n                result := add(result, 0x04)\r\n            }\r\n            revert(abi.decode(result, (string)));\r\n        }\r\n\r\n        return result;\r\n    }\r\n\r\n    function executeStaticCall(\r\n        address to,\r\n        bytes memory data,\r\n        uint256 txGas\r\n    ) internal view returns (bytes memory) {\r\n        (bool success, bytes memory result) = to.staticcall{gas: txGas}(data);\r\n\r\n        if (!success) {\r\n            // solhint-disable reason-string\r\n            if (result.length < 68) revert();\r\n\r\n            assembly {\r\n                result := add(result, 0x04)\r\n            }\r\n            revert(abi.decode(result, (string)));\r\n        }\r\n\r\n        return result;\r\n    }\r\n\r\n    function executeDelegateCall(\r\n        address to,\r\n        bytes memory data,\r\n        uint256 txGas\r\n    ) internal returns (bytes memory) {\r\n        // solhint-disable avoid-low-level-calls\r\n        (bool success, bytes memory result) = to.delegatecall{gas: txGas}(data);\r\n\r\n        if (!success) {\r\n            // solhint-disable reason-string\r\n            if (result.length < 68) revert();\r\n\r\n            assembly {\r\n                result := add(result, 0x04)\r\n            }\r\n            revert(abi.decode(result, (string)));\r\n        }\r\n\r\n        return result;\r\n    }\r\n\r\n    function performCreate(uint256 value, bytes memory deploymentData)\r\n        internal\r\n        returns (address newContract)\r\n    {\r\n        assembly {\r\n            newContract := create(value, add(deploymentData, 0x20), mload(deploymentData))\r\n        }\r\n\r\n        require(newContract != address(0), \"Could not deploy contract\");\r\n    }\r\n}\r\n",
  "sourcePath": "C:\\proj\\blockchain\\identity\\contracts\\ERC725.sol",
  "compiler": {
    "name": "solc",
    "version": "0.8.9+commit.e5eed63a.Emscripten.clang"
  },
  "schemaVersion": "3.4.3",
  "updatedAt": "2022-02-16T17:11:50.895Z",
  "devdoc": {
    "kind": "dev",
    "methods": {},
    "version": 1
  },
  "userdoc": {
    "kind": "user",
    "methods": {},
    "version": 1
  }
}